{
  "contractName": "decenTodo",
  "abi": [
    {
      "anonymous": false,
      "inputs": [
        {
          "indexed": false,
          "internalType": "uint256",
          "name": "id",
          "type": "uint256"
        },
        {
          "indexed": false,
          "internalType": "string",
          "name": "content",
          "type": "string"
        },
        {
          "indexed": false,
          "internalType": "bool",
          "name": "completed",
          "type": "bool"
        },
        {
          "indexed": false,
          "internalType": "uint256",
          "name": "date",
          "type": "uint256"
        },
        {
          "indexed": false,
          "internalType": "bool",
          "name": "dateIncluded",
          "type": "bool"
        }
      ],
      "name": "TaskCreated",
      "type": "event"
    },
    {
      "inputs": [],
      "name": "taskCount",
      "outputs": [
        {
          "internalType": "uint256",
          "name": "",
          "type": "uint256"
        }
      ],
      "stateMutability": "view",
      "type": "function",
      "constant": true
    },
    {
      "inputs": [
        {
          "internalType": "uint256",
          "name": "",
          "type": "uint256"
        }
      ],
      "name": "tasks",
      "outputs": [
        {
          "internalType": "uint256",
          "name": "id",
          "type": "uint256"
        },
        {
          "internalType": "string",
          "name": "content",
          "type": "string"
        },
        {
          "internalType": "bool",
          "name": "completed",
          "type": "bool"
        },
        {
          "internalType": "uint256",
          "name": "date",
          "type": "uint256"
        },
        {
          "internalType": "bool",
          "name": "dateIncluded",
          "type": "bool"
        }
      ],
      "stateMutability": "view",
      "type": "function",
      "constant": true
    },
    {
      "inputs": [
        {
          "internalType": "string",
          "name": "_content",
          "type": "string"
        },
        {
          "internalType": "uint256",
          "name": "_date",
          "type": "uint256"
        },
        {
          "internalType": "bool",
          "name": "_dateIncluded",
          "type": "bool"
        }
      ],
      "name": "createTask",
      "outputs": [],
      "stateMutability": "nonpayable",
      "type": "function"
    }
  ],
  "bytecode": "0x60806040526000805534801561001457600080fd5b506107d7806100246000396000f3fe608060405234801561001057600080fd5b50600436106100415760003560e01c80638d97767214610046578063b6cb58a51461007a578063d03e995b14610098575b600080fd5b610060600480360381019061005b9190610393565b6100b4565b604051610071959493929190610483565b60405180910390f35b61008261018c565b60405161008f91906104dd565b60405180910390f35b6100b260048036038101906100ad9190610659565b610192565b005b60016020528060005260406000206000915090508060000154908060010180546100dd906106f7565b80601f0160208091040260200160405190810160405280929190818152602001828054610109906106f7565b80156101565780601f1061012b57610100808354040283529160200191610156565b820191906000526020600020905b81548152906001019060200180831161013957829003601f168201915b5050505050908060020160009054906101000a900460ff16908060030154908060040160009054906101000a900460ff16905085565b60005481565b6040518060a00160405280600054815260200184815260200160001515815260200183815260200182151581525060016000805481526020019081526020016000206000820151816000015560208201518160010190805190602001906101fa9291906102a6565b5060408201518160020160006101000a81548160ff0219169083151502179055506060820151816003015560808201518160040160006101000a81548160ff0219169083151502179055509050507f3937eb498728a843b318a9fe709fc43cc0ecb955cdef47d8a52d931bc68aff866000548460008585604051610282959493929190610483565b60405180910390a160008081548092919061029c90610758565b9190505550505050565b8280546102b2906106f7565b90600052602060002090601f0160209004810192826102d4576000855561031b565b82601f106102ed57805160ff191683800117855561031b565b8280016001018555821561031b579182015b8281111561031a5782518255916020019190600101906102ff565b5b509050610328919061032c565b5090565b5b8082111561034557600081600090555060010161032d565b5090565b6000604051905090565b600080fd5b600080fd5b6000819050919050565b6103708161035d565b811461037b57600080fd5b50565b60008135905061038d81610367565b92915050565b6000602082840312156103a9576103a8610353565b5b60006103b78482850161037e565b91505092915050565b6103c98161035d565b82525050565b600081519050919050565b600082825260208201905092915050565b60005b838110156104095780820151818401526020810190506103ee565b83811115610418576000848401525b50505050565b6000601f19601f8301169050919050565b600061043a826103cf565b61044481856103da565b93506104548185602086016103eb565b61045d8161041e565b840191505092915050565b60008115159050919050565b61047d81610468565b82525050565b600060a08201905061049860008301886103c0565b81810360208301526104aa818761042f565b90506104b96040830186610474565b6104c660608301856103c0565b6104d36080830184610474565b9695505050505050565b60006020820190506104f260008301846103c0565b92915050565b600080fd5b600080fd5b7f4e487b7100000000000000000000000000000000000000000000000000000000600052604160045260246000fd5b61053a8261041e565b810181811067ffffffffffffffff8211171561055957610558610502565b5b80604052505050565b600061056c610349565b90506105788282610531565b919050565b600067ffffffffffffffff82111561059857610597610502565b5b6105a18261041e565b9050602081019050919050565b82818337600083830152505050565b60006105d06105cb8461057d565b610562565b9050828152602081018484840111156105ec576105eb6104fd565b5b6105f78482856105ae565b509392505050565b600082601f830112610614576106136104f8565b5b81356106248482602086016105bd565b91505092915050565b61063681610468565b811461064157600080fd5b50565b6000813590506106538161062d565b92915050565b60008060006060848603121561067257610671610353565b5b600084013567ffffffffffffffff8111156106905761068f610358565b5b61069c868287016105ff565b93505060206106ad8682870161037e565b92505060406106be86828701610644565b9150509250925092565b7f4e487b7100000000000000000000000000000000000000000000000000000000600052602260045260246000fd5b6000600282049050600182168061070f57607f821691505b60208210811415610723576107226106c8565b5b50919050565b7f4e487b7100000000000000000000000000000000000000000000000000000000600052601160045260246000fd5b60006107638261035d565b91507fffffffffffffffffffffffffffffffffffffffffffffffffffffffffffffffff82141561079657610795610729565b5b60018201905091905056fea2646970667358221220c156d9e8b30070e9b563c9379d8163cfd0d2cd0114239e4d2773bb29c9241fdd64736f6c634300080b0033",
  "immutableReferences": {},
  "source": "//SPDX-License-Identifier: MIT\npragma solidity ^0.8.11;\n\ncontract decenTodo {\n    uint public taskCount = 0;\n    mapping(uint => Task) public tasks;\n\n    struct Task {\n        uint id;\n        string content;\n        bool completed;\n        uint256 date;\n        bool dateIncluded;\n    }\n\n    event TaskCreated(\n        uint id,\n        string content,\n        bool completed,\n        uint256 date,\n        bool dateIncluded\n    );\n\n    function createTask(string memory _content, uint256 _date, bool _dateIncluded) public {\n        tasks[taskCount] = Task(taskCount, _content, false, _date, _dateIncluded);\n        emit TaskCreated(taskCount, _content, false, _date, _dateIncluded);\n        taskCount++;\n    }\n}",
  "sourcePath": "/home/gil/coding/github/decenTodo/contracts/decenTodo.sol",
  "compiler": {
    "name": "solc",
    "version": "0.8.11+commit.d7f03943.Emscripten.clang"
  },
  "schemaVersion": "3.4.4",
  "updatedAt": "2022-02-07T22:26:15.869Z",
  "networkType": "ethereum",
  "devdoc": {
    "kind": "dev",
    "methods": {},
    "version": 1
  },
  "userdoc": {
    "kind": "user",
    "methods": {},
    "version": 1
  }
}